:08000000803102288731FD2F39
:100F54008731B62787318731C52787318731DC2729
:100F64008731B02F80310228210099017030F000C0
:100F74007008990498012200960121001A1FC32FBA
:100F8400C42FBF2F0800F830F000700822008C0531
:100F9400F830F000700821008C050730F00070086C
:100FA40023008C0424008C012100951722009D014C
:100FB4009E010800F830F000700822008C05F20150
:100FC400F62F720822008C000130F0007008F2073E
:100FD4002930F1009630F0007F30890BEF2FF00BB1
:100FE400EF2FF10BEF2F000008307202031CFB2FD0
:0C0FF400FC2FE32F080020008731AA2FFB
:020000040001F9
:04000E00E43FFF1FAD
:00000001FF
